{"abi":[{"type":"function","name":"agentToOwner","inputs":[{"name":"","type":"string","internalType":"string"}],"outputs":[{"name":"","type":"string","internalType":"string"}],"stateMutability":"view"},{"type":"function","name":"createAgent","inputs":[{"name":"originalName","type":"string","internalType":"string"},{"name":"owner","type":"string","internalType":"string"}],"outputs":[{"name":"","type":"string","internalType":"string"}],"stateMutability":"nonpayable"},{"type":"function","name":"getAgentsByWallet","inputs":[{"name":"owner","type":"string","internalType":"string"}],"outputs":[{"name":"","type":"tuple[]","internalType":"struct AgentRegistry.Agent[]","components":[{"name":"originalName","type":"string","internalType":"string"},{"name":"encodedName","type":"string","internalType":"string"},{"name":"count","type":"uint256","internalType":"uint256"},{"name":"exists","type":"bool","internalType":"bool"}]}],"stateMutability":"view"},{"type":"function","name":"userAgents","inputs":[{"name":"","type":"string","internalType":"string"},{"name":"","type":"uint256","internalType":"uint256"}],"outputs":[{"name":"originalName","type":"string","internalType":"string"},{"name":"encodedName","type":"string","internalType":"string"},{"name":"count","type":"uint256","internalType":"uint256"},{"name":"exists","type":"bool","internalType":"bool"}],"stateMutability":"view"},{"type":"event","name":"AgentCreated","inputs":[{"name":"owner","type":"string","indexed":true,"internalType":"string"},{"name":"originalName","type":"string","indexed":false,"internalType":"string"},{"name":"encodedName","type":"string","indexed":false,"internalType":"string"},{"name":"count","type":"uint256","indexed":false,"internalType":"uint256"}],"anonymous":false}],"bytecode":{"object":"0x6080604052348015600e575f5ffd5b50610d198061001c5f395ff3fe608060405234801561000f575f5ffd5b506004361061004a575f3560e01c8063082594ec1461004e5780633a97e40f1461007a578063abde3c791461009a578063e192e06d146100ad575b5f5ffd5b61006161005c366004610867565b6100cd565b60405161007194939291906108d7565b60405180910390f35b61008d610088366004610914565b610233565b6040516100719190610979565b61008d6100a8366004610992565b61039b565b6100c06100bb366004610992565b61043e565b60405161007191906109cc565b81516020818401810180515f8252928201918501919091209190528054829081106100f6575f80fd5b905f5260205f2090600402015f9150915050805f01805461011690610a6c565b80601f016020809104026020016040519081016040528092919081815260200182805461014290610a6c565b801561018d5780601f106101645761010080835404028352916020019161018d565b820191905f5260205f20905b81548152906001019060200180831161017057829003601f168201915b5050505050908060010180546101a290610a6c565b80601f01602080910402602001604051908101604052809291908181526020018280546101ce90610a6c565b80156102195780601f106101f057610100808354040283529160200191610219565b820191905f5260205f20905b8154815290600101906020018083116101fc57829003601f168201915b50505050600283015460039093015491929160ff16905084565b60605f5f836040516102459190610abb565b90815260405190819003602001902054610260906001610ada565b90505f61026e8486846105f5565b6040805160808101825287815260208101839052808201859052600160608201529051919250905f906102a2908790610abb565b9081526040516020918190038201902080546001810182555f918252919020825183926004029091019081906102d89082610b39565b50602082015160018201906102ed9082610b39565b5060408281015160028301556060909201516003909101805460ff1916911515919091179055518590600190610324908590610abb565b9081526020016040518091039020908161033e9190610b39565b508460405161034d9190610abb565b60405180910390207fbddb385885da46553cac7887e877b16b48520077e986c04be3fb58d92e3e767587848660405161038893929190610bf4565b60405180910390a2509150505b92915050565b8051602081830181018051600182529282019190930120915280546103bf90610a6c565b80601f01602080910402602001604051908101604052809291908181526020018280546103eb90610a6c565b80156104365780601f1061040d57610100808354040283529160200191610436565b820191905f5260205f20905b81548152906001019060200180831161041957829003601f168201915b505050505081565b60605f8260405161044f9190610abb565b9081526020016040518091039020805480602002602001604051908101604052809291908181526020015f905b828210156105ea578382905f5260205f2090600402016040518060800160405290815f820180546104ac90610a6c565b80601f01602080910402602001604051908101604052809291908181526020018280546104d890610a6c565b80156105235780601f106104fa57610100808354040283529160200191610523565b820191905f5260205f20905b81548152906001019060200180831161050657829003601f168201915b5050505050815260200160018201805461053c90610a6c565b80601f016020809104026020016040519081016040528092919081815260200182805461056890610a6c565b80156105b35780601f1061058a576101008083540402835291602001916105b3565b820191905f5260205f20905b81548152906001019060200180831161059657829003601f168201915b5050509183525050600282015460208083019190915260039092015460ff161515604090910152908252600192909201910161047c565b505050509050919050565b6040805160048082528183019092526060915f9190602082018180368337019050509050845f5b60048110801561062c5750815181105b156106885781818151811061064357610643610c29565b602001015160f81c60f81b83828151811061066057610660610c29565b60200101906001600160f81b03191690815f1a9053508061068081610c3d565b91505061061c565b508185610694866106c0565b6040516020016106a693929190610c55565b604051602081830303815290604052925050509392505050565b6060815f036106e65750506040805180820190915260018152600360fc1b602082015290565b815f5b811561070f57806106f981610c3d565b91506107089050600a83610ca8565b91506106e9565b5f8167ffffffffffffffff811115610729576107296107c8565b6040519080825280601f01601f191660200182016040528015610753576020820181803683370190505b508593509050815b83156107bf5761076c600a85610cbb565b610777906030610ada565b60f81b8261078483610cce565b9250828151811061079757610797610c29565b60200101906001600160f81b03191690815f1a9053506107b8600a85610ca8565b935061075b565b50949350505050565b634e487b7160e01b5f52604160045260245ffd5b5f82601f8301126107eb575f5ffd5b813567ffffffffffffffff811115610805576108056107c8565b604051601f8201601f19908116603f0116810167ffffffffffffffff81118282101715610834576108346107c8565b60405281815283820160200185101561084b575f5ffd5b816020850160208301375f918101602001919091529392505050565b5f5f60408385031215610878575f5ffd5b823567ffffffffffffffff81111561088e575f5ffd5b61089a858286016107dc565b95602094909401359450505050565b5f81518084528060208401602086015e5f602082860101526020601f19601f83011685010191505092915050565b608081525f6108e960808301876108a9565b82810360208401526108fb81876108a9565b6040840195909552505090151560609091015292915050565b5f5f60408385031215610925575f5ffd5b823567ffffffffffffffff81111561093b575f5ffd5b610947858286016107dc565b925050602083013567ffffffffffffffff811115610963575f5ffd5b61096f858286016107dc565b9150509250929050565b602081525f61098b60208301846108a9565b9392505050565b5f602082840312156109a2575f5ffd5b813567ffffffffffffffff8111156109b8575f5ffd5b6109c4848285016107dc565b949350505050565b5f602082016020835280845180835260408501915060408160051b8601019250602086015f5b82811015610a6057603f198786030184528151805160808752610a1860808801826108a9565b905060208201518782036020890152610a3182826108a9565b604084810151908a015260609384015115159390980192909252505060209384019391909101906001016109f2565b50929695505050505050565b600181811c90821680610a8057607f821691505b602082108103610a9e57634e487b7160e01b5f52602260045260245ffd5b50919050565b5f81518060208401855e5f93019283525090919050565b5f61098b8284610aa4565b634e487b7160e01b5f52601160045260245ffd5b8082018082111561039557610395610ac6565b601f821115610b3457805f5260205f20601f840160051c81016020851015610b125750805b601f840160051c820191505b81811015610b31575f8155600101610b1e565b50505b505050565b815167ffffffffffffffff811115610b5357610b536107c8565b610b6781610b618454610a6c565b84610aed565b6020601f821160018114610b99575f8315610b825750848201515b5f19600385901b1c1916600184901b178455610b31565b5f84815260208120601f198516915b82811015610bc85787850151825560209485019460019092019101610ba8565b5084821015610be557868401515f19600387901b60f8161c191681555b50505050600190811b01905550565b606081525f610c0660608301866108a9565b8281036020840152610c1881866108a9565b915050826040830152949350505050565b634e487b7160e01b5f52603260045260245ffd5b5f60018201610c4e57610c4e610ac6565b5060010190565b5f610c608286610aa4565b605f60f81b8152610c746001820186610aa4565b9050605f60f81b8152610c8a6001820185610aa4565b9695505050505050565b634e487b7160e01b5f52601260045260245ffd5b5f82610cb657610cb6610c94565b500490565b5f82610cc957610cc9610c94565b500690565b5f81610cdc57610cdc610ac6565b505f19019056fea26469706673582212209acfa69850d93d4e1affedde20385f6f07f1d2add6f479667187818505ef6c9764736f6c634300081c0033","linkReferences":{}},"methodIdentifiers":{"agentToOwner(string)":"abde3c79","createAgent(string,string)":"3a97e40f","getAgentsByWallet(string)":"e192e06d","userAgents(string,uint256)":"082594ec"},"id":39}